:020000040800F2
:1000000000280020A1450008F1400008F340000846
:10001000F5400008F7400008F94000080000000023
:10002000000000000000000000000000FB4000088D
:10003000FD40000800000000FF40000801410008EA
:10004000E9450008E9450008E9450008E9450008D8
:10005000E9450008E9450008E9450008E9450008C8
:10006000E9450008E9450008E9450008E9450008B8
:1000700041410008E94500084D410008E9450008F4
:10008000E945000859410008E9450008E94500082C
:1000900065410008E9450008E9450008E945000810
:1000A000E9450008E9450008E9450008E945000878
:1000B000E9450008E9450008E9450008E945000868
:1000C000E9450008E9450008E9450008E945000858
:1000D000E945000871410008D1410008DD410008F0
:1000E000E9450008E9450008E9450008000000006E
:1000F0000000000000000000000000000000000000
:0C01000000000000000000005FF808F1A3
:10010C0010B5054C237833B9044B13B10448AFF345
:10011C0000800123237010BD10000020000000009F
:10012C00AC46000808B5034B1BB103490348AFF3B9
:10013C00008008BD0000000014000020AC46000840
:10014C00034613F8012B002AFBD1181A013870470B
:10015C0080F0004002E000BF81F0004142001FBF70
:10016C005FEA410392EA030F7FEA226C7FEA236C79
:10017C006AD04FEA1262D2EB1363C1BFD21841406E
:10018C0048404140B8BF5B42192B88BF704710F004
:10019C00004F40F4000020F07F4018BF404211F0A7
:1001AC00004F41F4000121F07F4118BF494292EA0F
:1001BC00030F3FD0A2F1010241FA03FC10EB0C003B
:1001CC00C3F1200301FA03F100F0004302D54942C8
:1001DC0060EB4000B0F5000F13D3B0F1807F06D375
:1001EC0040084FEA310102F10102FE2A51D2B1F16D
:1001FC00004F40EBC25008BF20F0010040EA030062
:10020C007047490040EB0000013A28BFB0F5000FE1
:10021C00EDD2B0FA80FCACF1080CB2EB0C0200FA97
:10022C000CF0AABF00EBC25052421843BCBFD040E6
:10023C001843704792F0000F81F4000106BF80F460
:10024C0000000132013BB5E74FEA41037FEA226C23
:10025C0018BF7FEA236C21D092EA030F04D092F0EE
:10026C00000F08BF0846704790EA010F1CBF002022
:10027C00704712F07F4F04D1400028BF40F000407F
:10028C00704712F100723CBF00F50000704700F09F
:10029C00004343F0FE4040F4000070477FEA2262C6
:1002AC0016BF08467FEA23630146420206BF5FEA97
:1002BC00412390EA010F40F4800070474FF0000397
:1002CC0004E000BF10F0004348BF40425FEA000C5E
:1002DC0008BF704743F0964301464FF000001CE006
:1002EC0050EA010208BF70474FF000030AE000BF5C
:1002FC0050EA010208BF704711F0004302D540429A
:10030C0061EB41015FEA010C02BF8446014600200B
:10031C0043F0B64308BFA3F18053A3F50003BCFA26
:10032C008CF2083AA3EBC25310DB01FA02FC6344D3
:10033C0000FA02FCC2F12002BCF1004F20FA02F2DA
:10034C0043EB020008BF20F00100704702F12002CD
:10035C0001FA02FCC2F1200250EA4C0021FA02F22E
:10036C0043EB020008BF20EADC7070474FF0FF0C33
:10037C001CEAD0521EBF1CEAD15392EA0C0F93EA2E
:10038C000C0F6FD01A4480EA010C400218BF5FEAD0
:10039C0041211ED04FF0006343EA501043EA511143
:1003AC00A0FB01310CF00040B1F5000F3EBF49003D
:1003BC0041EAD3715B0040EA010062F17F02FD2A41
:1003CC001DD8B3F1004F40EBC25008BF20F0010024
:1003DC00704790F0000F0CF0004C08BF49024CEA3B
:1003EC00502040EA51207F3AC2BFD2F1FF0340EACD
:1003FC00C250704740F400004FF00003013A5DDC3E
:10040C0012F1190FDCBF00F000407047C2F100027E
:10041C00410021FA02F1C2F1200200FA02FC5FEA6B
:10042C00310040F1000053EA4C0308BF20EADC70B5
:10043C00704792F0000F00F0004C02BF400010F427
:10044C00000F013AF9D040EA0C0093F0000F01F0D4
:10045C00004C02BF490011F4000F013BF9D041EAF6
:10046C000C018FE70CEAD15392EA0C0F18BF93EAF8
:10047C000C0F0AD030F0004C18BF31F0004CD8D122
:10048C0080EA010000F00040704790F0000F17BFA9
:10049C0090F0004F084691F0000F91F0004F14D0EF
:1004AC0092EA0C0F01D142020FD193EA0C0F03D147
:1004BC004B0218BF084608D180EA010000F000404A
:1004CC0040F0FE4040F40000704740F0FE4040F425
:1004DC00400070474FF0FF0C1CEAD0521EBF1CEAC4
:1004EC00D15392EA0C0F93EA0C0F69D0A2EB0302E2
:1004FC0080EA010C49024FEA402037D04FF080537C
:10050C0043EA111143EA10130CF000408B4238BF40
:10051C005B0042F17D024FF4000C8B4224BF5B1A4E
:10052C0040EA0C00B3EB510F24BFA3EB510340EA9C
:10053C005C00B3EB910F24BFA3EB910340EA9C004A
:10054C00B3EBD10F24BFA3EBD10340EADC001B01BA
:10055C0018BF5FEA1C1CE0D1FD2A3FF650AF8B425E
:10056C0040EBC25008BF20F0010070470CF0004C6B
:10057C004CEA50207F32C2BFD2F1FF0340EAC25096
:10058C00704740F400004FF00003013A37E792F057
:10059C00000F00F0004C02BF400010F4000F013AB5
:1005AC00F9D040EA0C0093F0000F01F0004C02BFB0
:1005BC00490011F4000F013BF9D041EA0C0195E719
:1005CC000CEAD15392EA0C0F08D142027FF47DAFB2
:1005DC0093EA0C0F7FF470AF084676E793EA0C0FA2
:1005EC0004D14B023FF44CAF08466EE730F0004CA0
:1005FC0018BF31F0004CCAD130F000427FF45CAF30
:10060C0031F000437FF43CAF5FE700BF4FF0FF3C9D
:10061C0006E000BF4FF0010C02E000BF4FF0010CF0
:10062C004DF804CD4FEA40024FEA41037FEA226CB9
:10063C0018BF7FEA236C11D001B052EA530C18BFDB
:10064C0090EA010F58BFB2EB030088BFC81738BF40
:10065C006FEAE17018BF40F0010070477FEA226C2E
:10066C0002D15FEA402C05D17FEA236CE4D15FEA2A
:10067C00412CE1D05DF8040B704700BF844608465E
:10068C006146FFE70FB5FFF7C9FF002848BF10F11F
:10069C00000F0FBD4DF808EDFFF7F4FF0CBF012064
:1006AC0000205DF808FB00BF4DF808EDFFF7EAFFEE
:1006BC0034BF012000205DF808FB00BF4DF808EDA9
:1006CC00FFF7E0FF94BF012000205DF808FB00BF9E
:1006DC004DF808EDFFF7D2FF94BF012000205DF824
:1006EC0008FB00BF4DF808EDFFF7C8FF34BF012031
:1006FC0000205DF808FB00BF42000ED2B2F1FE4FA5
:10070C000BD34FF09E03B3EB126209D44FEA0023D4
:10071C0043F0004323FA02F070474FF0000070479B
:10072C0012F1610F01D1420202D14FF0FF3070473C
:10073C004FF00000704700BF38B50E4B05461878D7
:10074C004FF47A73B3FBF0F30B4A1068B0FBF3F081
:10075C0000F008FC044658B90F2D09D8024629466A
:10076C004FF0FF3000F0AAFB2046044B1D6038BD53
:10077C000120FCE7000000200800002004000020FD
:10078C00074A08B51368032043F01003136000F008
:10079C0083FB0120FFF7D0FF03F082FC002008BD93
:1007AC0000200240034A044B11681B780B44136071
:1007BC00704700BF2C00002000000020014B18687F
:1007CC00704700BF2C00002038B50446FFF7F6FF39
:1007DC000546631C1EBF044B1B78E418FFF7EEFFA5
:1007EC00431BA342FAD338BD0000002038B50446A1
:1007FC0000286ED090F820300BB903F079F92268FC
:10080C00136823F002031360FFF7D8FF0546236833
:10081C005A68910751D41A6842F001021A60FFF726
:10082C00CDFF054623685A68D20754D5227E002096
:10083C00012A1A680CBF42F0800222F080021A6072
:10084C00627E012A1A680CBF42F0400222F040027C
:10085C001A60A27E012A1A680CBF42F0200222F014
:10086C0020021A60E27E012A1A680CBF22F01002E4
:10087C0042F010021A60227F012A1A680CBF42F063
:10088C00080222F008021A60627F012A1A680CBF63
:10089C0042F0040222F004021A60D4E902210A4355
:1008AC0021690A4361690A43616801390A43DA61C3
:1008BC000123606284F8203038BDFFF77FFF401BB6
:1008CC000A28A4D9636A43F400336362052384F8CD
:1008DC0020300120F0E7FFF771FF401B0A28A1D957
:1008EC00F0E770B590F82030013B012B62D8012461
:1008FC000368D3F8002242F00102C3F800224A69CF
:10090C00D3F81C5202F01F0004FA00F025EA00058F
:10091C00C3F81C52CD69C44385BBD3F80C52CE68C6
:10092C002540C3F80C528D8803EBC20245EA0645FC
:10093C00C2F840528E680D8845EA0645C2F844520A
:10094C008A696ABBD3F804222240C3F804220A69DC
:10095C0052BBD3F814221440C3F814420A6A012A79
:10096C0002BFD3F81C221043C3F81C020020D3F89A
:10097C00002222F00102C3F8002270BD012DDFD14C
:10098C00D3F80C520E680543C3F80C528D8803EB58
:10099C00C20245EA0645C2F840528E688D89CBE703
:1009AC00D3F804220243D0E7D3F814220243C3F84D
:1009BC001422D3E7436A43F4802343620120DCE72B
:1009CC0070B590F820300446012BDDB220D1022303
:1009DC00026880F82030136823F001031360FFF7DE
:1009EC00EDFE064623685B6813F0010302D11D4639
:1009FC0063620BE0FFF7E2FE801B0A28F2D9636A00
:100A0C0043F400336362052384F82030284670BD1C
:100A1C00436A012543F400234362F7E738B590F8A5
:100A2C0020300446022B22D10268136843F00103E4
:100A3C001360FFF7C3FE054623685A68D20708D532
:100A4C001A68002022F002021A60012384F8203078
:100A5C0038BDFFF7B3FE401B0A28EDD9636A43F497
:100A6C0000336362052384F820300120F0E7436AE9
:100A7C0043F480134362F8E710B5044670B1FFF7F6
:100A8C00CDFF204603F080F800202268136843F461
:100A9C0000431360606284F8200010BD0120FCE765
:100AAC00F0B590F820500668013D012DB46841D88E
:100ABC0014F0E05F3AD0C4F30164032C4FF001054D
:100ACC0005D1436A43F400034362012028E0A540AA
:100ADC001D60D1E9020704F1180310BB086847EA4E
:100AEC0040501B01F050200106EB0413064400207B
:100AFC000D69C3F88451097D012902BFD3F8841113
:100B0C0041F48071C3F884115168C6F88C111268D5
:100B1C00C6F88821D3F8802142F00102C3F8802165
:100B2C00F0BD4D68384340EAC500DAE7436A43F448
:100B3C000013C9E7436A43F48023C5E7F0B590F886
:100B4C002040013C012C6CD8066841B9F468A4071C
:100B5C0007D1436A43F400134362012056E0346921
:100B6C00F5E706EB0115D5F8B0710C0107F0040799
:100B7C009760002F4BD1D5F8B0717F0D1760D5F869
:100B8C00B071264407F00207D760D5F8B47107F0AE
:100B9C000F071761D5F8B471D5F8B451C7F307270F
:100BAC002D0C97615561D6F8B8211A700268224451
:100BBC00D2F8B821120A5A7002682244D2F8B8212D
:100BCC00120C9A7002682244D2F8B821120EDA7014
:100BDC0002682244D2F8BC211A7102682244D2F86D
:100BEC00BC21120A5A7102682244D2F8BC21120CA0
:100BFC009A7102682244D2F8BC21120EDA71036891
:100C0C0051B9DA6842F02002DA600020F0BDD5F864
:100C1C00B071FF085760B2E71A6942F020021A61FE
:100C2C00F3E7436A43F4802396E790F82030013BC6
:100C3C00012B05D802680020536919435161704794
:100C4C00436A43F480234362012070477047704726
:100C5C007047704770472DE9F84F036805465E6989
:100C6C00D3F8049016F001049F68D3F80CB0D3F8B5
:100C7C0010A0D3F8188022D017F0010407D001225D
:100C8C00B9079A6040F1A58001F080FC0024FB05B7
:100C9C0009D54FF480722B68B8059A6040F1A78093
:100CAC00284601F074FCFB0309D54FF480322B6805
:100CBC00B8039A6040F1A980284601F069FC33071B
:100CCC0007D51BF0100F1FBF10222B6844F40074C3
:100CDC00DA60770708D51BF0080F05D008222B68BF
:100CEC002846DA6003F070F8B00706D52B68DB688D
:100CFC00990702D0284603F02DF8720607D51AF092
:100D0C00100F1FBF10222B6844F480641A61B306C5
:100D1C0008D51AF0080F05D008222B6828461A614E
:100D2C0003F054F8F70606D52B681B69980702D018
:100D3C00284602F0D5FFB10308D519F0100F05D0E5
:100D4C0010222B6828465A60FFF783FFF20308D560
:100D5C0019F0080F05D008222B6828465A60FFF7B7
:100D6C0079FF33042CD519F0040F2A6826D0F70527
:100D7C0004D518F0010F18BF44F00104B00504D5D8
:100D8C0018F0020F18BF44F00204710504D518F0D6
:100D9C00040F18BF44F0040433050FD518F070038A
:100DAC000CD0402B4FD03ED8202B46D0302B47D0E8
:100DBC00102B3FD0936923F070039361042353608D
:100DCC002CB16B6A28461C436C6203F001F8BDE839
:100DDC00F88F7A0705D417F0080405D1FFF736FF12
:100DEC0055E74FF4006452E74FF480544FE7790510
:100DFC0002D544F4005456E73A0502D544F4804435
:100E0C0051E72846FFF723FF4DE7790302D544F459
:100E1C00004454E73A0302D544F480344FE72846A3
:100E2C00FFF716FF4BE7502B10D0602BC2D144F4C8
:100E3C008074BFE744F00804BCE744F01004B9E741
:100E4C0044F02004B6E744F04004B3E744F08004D7
:100E5C00B0E790F820200346D0B2013A012A0AD814
:100E6C001B685A68920705D41B6813F0020F18BF51
:100E7C00032070470420704790F82030013B012B71
:100E8C0095BF0023436A436243F4802392BF184604
:100E9C00436201207047000007490302CA6803F44B
:100EAC00E06322F4E0621204120C134343F0BF63BC
:100EBC0043F40033CB60704700ED00E0164B30B5C7
:100ECC00DC68C4F30224C4F10703251D042B28BFDE
:100EDC000423062D4FF0FF3598BF002405FA03F3C9
:100EEC0088BF033C21EA0303A34005FA04F422EA79
:100EFC000402002843EA0203ACBF00F16040074A39
:100F0C004FEA0313DBB2ABBF00F5614000F00F00FA
:100F1C0080F80033135430BD00ED00E014ED00E018
:100F2C00002808DB0123420900F01F0003FA00F03F
:100F3C00014B43F82200704700E100E000280DDB74
:100F4C000122430900F01F0002FA00F0044A20338A
:100F5C0042F82300BFF34F8FBFF36F8F704700BF72
:100F6C0000E100E00138B0F1807F0BD24FF0E023BC
:100F7C00F021054A586182F823100020072298615D
:100F8C001A6170470120704700ED00E010B520B3E6
:100F9C0014220168124B0B44B3FBF2F39B00036465
:100FAC00104B0A68C363D0E901342343C46822F4AC
:100FBC007F522343046922F03002234344692343C4
:100FCC0084692343C469234313430B604FF4807239
:100FDC00002302848363184610BD0120FCE700BF88
:100FEC00F8FFFDBF00000240034610B5E8B10168F0
:100FFC0000200A680E4C22F001020A600D4A0860BB
:10100C000A4448608860C8601421B2FBF1F20121E7
:10101C0092001A6401FA02F2DC636260C3E90A000E
:10102C00C3E90C009863188410BD0120FCE700BFD5
:10103C0000000240F8FFFDBFF0B590F82040012CF5
:10104C0034D0012490F8215080F82040A5424FF074
:10105C0000064FF0020427D180F821400468866313
:10106C00266826F001062660D0E90F67BD40756042
:10107C0063604368102BC36A0BBFA260A160E16080
:10108C00E2604BB1236843F00E0300202360236819
:10109C0043F001032360F0BD236823F004032360B5
:1010AC00236843F00A03F0E780F820600220F2E79F
:1010BC0008B590F82130022B03D004238363012060
:1010CC0008BD03681A6822F00E021A601A6822F032
:1010DC0001021A60174A93421CD0143293421BD05F
:1010EC00143293421AD0143293421AD014329342CF
:1010FC001AD0143293420CBF4FF480134FF080730C
:10110C000D4A53604FF480730384436B7BB1984753
:10111C000020D5E70123F3E71023F1E74FF48073A8
:10112C00EEE74FF48053EBE74FF48033E8E71846D3
:10113C00C6E700BF080002400000024070B404255E
:10114C00C66B026C3468036895402542196832D02E
:10115C004D0730D51A6896065EBF1A6822F0040255
:10116C001A603D4A934219D01432934218D014326B
:10117C00934217D01432934217D01432934217D0A3
:10118C00143293420CBF4FF480034FF08063334A08
:10119C005360C36A002B5CD070BC18470423F6E77D
:1011AC004023F4E74FF48063F1E74FF48043EEE71C
:1011BC004FF48023EBE702259540254235D08D076F
:1011CC0033D51A68940606D41A6822F00A021A60FB
:1011DC00012280F82120204A934219D014329342E4
:1011EC0018D01432934217D01432934217D01432C1
:1011FC00934217D0143293420CBF4FF400134FF0AC
:10120C000073164A5360002380F82030836AC1E7CC
:10121C000223F6E72023F4E74FF40073F1E74FF4D1
:10122C000053EEE74FF40033EBE7082595402542D9
:10123C000FD009070DD5196821F00E011960012393
:10124C0003FA02F2726083634FF480730384036BBE
:10125C00A0E770BC704700BF0800024000000240CD
:10126C002DE9F74F00221646644F654BDFF894C109
:10127C00DFF894E10D6835FA06F402D103B0BDE84D
:10128C00F08F4FF0010808FA06F805EA080438EA6E
:10129C0005057BD14D68032D07D8013D022D00F2C9
:1012AC008880DFE805F0969BA100122D00F0998054
:1012BC006ED8112D00F08F80FF2C98BF82464FF016
:1012CC000F0988BF00F1040A4FEA8605DAF800809E
:1012DC0088BF203D09FA05FB28EA0B0802FA05F540
:1012EC0048EA0505CAF80050D1F804A01AF0805F4E
:1012FC004CD0BD6926F0030845F00105BD61BD6900
:10130C0008F1804805F00105019508F5803806F0D4
:10131C00030B019D4FEA8B0BD8F8085009FA0BF917
:10132C0025EA0909394DA84262D005F58065A84225
:10133C0060D005F58065A8425ED005F58065A842B1
:10134C000CBF0325042505FA0BF545EA0905C8F879
:10135C0008501D681AF4803F14BF2543A5431D6037
:10136C005D681AF4003F14BF2543A5435D609D687A
:10137C001AF4801F14BF2543A5439D60DD681AF441
:10138C00001F14BF2C4325EA0404DC60013671E70E
:10139C00DFF87C904D450CD017D8A9F580194D4538
:1013AC0007D009F570294D4503D0A9F580194D4595
:1013BC0082D18A68D2B1012A08BFC0F810804FF0E0
:1013CC00080218BFC0F8148076E76545F1D0754562
:1013DC00EEE7CA6870E7CA6804326DE7CA6808327B
:1013EC006AE7CA680C3267E7002265E7042263E704
:1013FC000025A8E70125A6E70225A4E70010024076
:10140C0000040140000031100000321000080140BF
:10141C00000022102DE9F74F4FF0040B00224FF083
:10142C00010A4FF00F0800EB0B0301932E4B31FA1E
:10143C0002F402D103B0BDE8F08F0AFA02F70F40B4
:10144C0049D022F0030404F1804404F5803402F006
:10145C00030CA5684FEA8C0C08FA0CF909EA050E86
:10146C00224DA84239D005F58065A84237D005F544
:10147C008065A84235D005F58065A8420CBF0325D0
:10148C00042505FA0CF575456FEA07060FD1A5681A
:10149C0025EA0905A5601C6834401C605C68344072
:1014AC005C609C6834409C60DC683440DC60FF2FDE
:1014BC0094BF0746019F4FEA82043D6888BF203CD9
:1014CC0008FA04FC25EA0C050BFA04F425433D60EC
:1014DC00C4682640C6600132A9E70025D1E7012582
:1014EC00CFE70225CDE700BF000401400008014012
:1014FC008368194214BF0120002070470122014B60
:10150C001A62704700000E422DE9F341054638B3CC
:10151C000368DB0710D42B689F075ED42B68190770
:10152C0000F195802B685A0700F1C180E86900280A
:10153C0040F02C81002029E0904C636803F00C03F0
:10154C00042B07D0636803F00C03082B0AD16368E3
:10155C00DE0307D523689C03DDD56B68002BDAD13D
:10156C00012013E06B68B3F5803F12D1236843F47C
:10157C0080332360FFF722F9064623689803CAD408
:10158C00FFF71CF9801B6428F7D9032002B0BDE8D3
:10159C00F0819BB9236823F480332360236823F400
:1015AC0080232360FFF70AF9064623689903B2D516
:1015BC00FFF704F9801B6428F7D9E6E7B3F5A02FF1
:1015CC00236803D143F480232360CFE723F48033D3
:1015DC002360236823F48023CBE7684C636813F003
:1015EC000C0F07D0636803F00C03082B10D1636851
:1015FC00DA030DD423689B0702D52B69012BAFD1DD
:10160C0023686A6923F0F80343EAC203236085E781
:10161C002A695B4B6AB101221A60FFF7CFF80646C4
:10162C0023689F07ECD4FFF7C9F8801B0228F7D971
:10163C00ABE71A60FFF7C2F80646236898077FF5F8
:10164C006DAFFFF7BBF8801B0228F6D99DE7AA699E
:10165C004A4E4B4BE2B10122C3F88024FFF7AEF89F
:10166C000446736A9B070DD54FF4FA52454B1B6821
:10167C00B3FBF2F3019300BF019B5A1E0192002BA6
:10168C00F9D14FE7FFF79AF8001B0228E9D97CE75C
:10169C00C3F88024FFF792F80446736A9F077FF51E
:1016AC0041AFFFF78BF8001B0228F6D96DE7334CDE
:1016BC00E369D80024D40127E36943F08053E36144
:1016CC00E36903F080530093009B2F4E3368D905D8
:1016DC0018D5EB68012B26D1236A43F00103236252
:1016EC00FFF76CF841F288380646236A9B073FD512
:1016FC00002F3FF41BAFE36923F08053E36115E740
:10170C000027E2E7336843F480733360FFF756F841
:10171C0080463368DA05DCD4FFF750F8A0EB0800FC
:10172C006428F6D931E7ABB9236A41F2883823F043
:10173C0001032362236A23F004032362FFF73EF8BC
:10174C000646236A9807D3D5FFF738F8801B404527
:10175C00F7D91AE7052B236A03D143F0040323625C
:10176C00BAE723F001032362236A23F00403B6E7EC
:10177C00FFF724F8801B4045B7D906E7001002405C
:10178C000000424208000020007000402A4C6368B0
:10179C0003F00C03082B3ED00022284B02281A66BB
:1017AC002CD1FFF70BF806462368990120D42B6A3D
:1017BC00B3F5803F05D16268A96822F400320A4370
:1017CC006260696A62680B4322F47412134301224B
:1017DC0063601A4B1A66FEF7F1FF054623689A01FF
:1017EC003FF5A8AEFEF7EAFF401B0228F6D9CCE67F
:1017FC00FEF7E4FF801B0228D6D9C6E6FEF7DEFF13
:10180C00054623689B017FF595AEFEF7D7FF401B7D
:10181C000228F6D9B9E601283FF4B8AE63682A6A03
:10182C0003F4803191427FF49BAE6A6A03F4701327
:10183C0093423FF47FAE93E6001002400000424218
:10184C0030B5184B87B002AC03F11005224618686E
:10185C005968083303C2AB421446F7D140F2012356
:10186C001149ADF804304B6803F00C02082A17D16B
:10187C00C3F3834218326A44DB0312F8100C0CD504
:10188C004B680A4AC3F34043504318336B4413F874
:10189C00143CB0FBF3F007B030BD054B5843FAE7EE
:1018AC000248F8E7C44600080010024000127A0013
:1018BC0000093D002DE9F0410D46044610B9012008
:1018CC00BDE8F081444A136803F007038B4228D328
:1018DC0021688E0730D4CA0743D43F4A136803F0FB
:1018EC000703AB4265D822683C4D12F0040F6CD153
:1018FC00130706D56B68226923F4605343EAC203CD
:10190C006B60FFF79DFF6B68354AC3F30313D35C21
:10191C00D840344B1860344B1868FEF70DFF00208C
:10192C00CEE7136823F007030B431360136803F02F
:10193C0007038B42C3D1CBE7284B11F0040F1EBF1A
:10194C005A6842F4E0625A60080742BF5A6842F48F
:10195C0060525A605A68A06822F0F00202435A6042
:10196C00B9E762681D4E012A33681AD113F4003F9F
:10197C00A5D0736841F2883823F0030313437360D6
:10198C00FEF71CFF07467368626803F00C03B3EBA9
:10199C00820FA2D0FEF712FFC01B4045F3D90320E3
:1019AC008EE7022A02D113F0007FE1E713F0020F59
:1019BC00DEE7136823F007032B431360136803F06F
:1019CC000703AB427FF47BAF8DE76B68E16823F4D0
:1019DC00E0630B436B608BE7002002400010024079
:1019EC00CC4B00080800002004000020044B054AE2
:1019FC005B68C3F30223D35C034A1068D84070477A
:101A0C0000100240DC4B000808000020044B054A83
:101A1C005B68C3F3C223D35C034A1068D840704799
:101A2C0000100240DC4B00080800002003682DE980
:101A3C00F341D907054620D5364CE369DA0032D498
:101A4C000126E36943F08053E361E36903F08053BB
:101A5C000193019B304F3B68DB0526D5236A13F4B9
:101A6C00407336D1236A6A6823F4407313432362AC
:101A7C001EB1E36923F08053E3612868830706D520
:101A8C002449AB684A6822F440421A434A6010F079
:101A9C0010001BD01F4AE9685368002023F4800310
:101AAC000B43536012E00026D4E73B6843F4807389
:101ABC003B60FEF783FE80463B68D805CED4FEF72C
:101ACC007DFEA0EB08006428F6D9032002B0BDE827
:101ADC00F0816A6802F440729A42C3D001200F4A26
:101AEC00236AC2F84004002023F44071C2F8400479
:101AFC002162D907B6D5FEF761FE41F28838074658
:101B0C00236A9A07AED4FEF759FEC01B4045F7D99D
:101B1C00DBE700BF001002400070004000004242B2
:101B2C00024670B5334B86B002AD03F110062C465D
:101B3C0018685968083303C4B3422546F7D140F2FC
:101B4C000123022AADF8043047D0102A03D0012A11
:101B5C0024D0002036E0284A5168106810F08070BC
:101B6C0030D0C1F3834318336B44C90313F8100C02
:101B7C0049BF5368214BC3F34043183341BF6B44F7
:101B8C0013F8141C1E4BB3FBF1F3584353685B0260
:101B9C0018D403234000B0FBF3F013E040F2023101
:101BAC00154A136A1940B1F5817F1FD003F44073B5
:101BBC00B3F5007F08D149F64043506A10F002009B
:101BCC0018BF184606B070BDB3F5407FC1D1106880
:101BDC004FF2244310F40030F2E7FFF717FF064BE7
:101BEC005B68C3F3813301335B00D4E74FF40040EF
:101BFC00E8E700BFC44600080010024000093D00A1
:101C0C0000127A0038B50446FEF7D8FD0546236865
:101C1C005A68920605D500205A6842F010025A60A4
:101C2C0038BDFEF7CBFD401BB0F57A7FEFD9032012
:101C3C00F6E7026838B55368044623F01003536086
:101C4C00FEF7BCFD054623685B689B0601D50020AA
:101C5C0038BDFEF7B3FD401BB0F57A7FF3D90320F6
:101C6C00F6E738B50446A8B10268536823F00803B8
:101C7C005360FEF7A3FD054623685B681B0701D57F
:101C8C00002038BDFEF79AFD401BB0F57A7FF3D9E2
:101C9C000320F6E70120F4E710B5044670B1437C4D
:101CAC0003F0FF0213B9027402F0DCF902232046A0
:101CBC006374FFF7D6FF18B104236374012036E078
:101CCC002046FFF79FFF0028F6D12268A0685368D2
:101CDC0023F007035360164A18B1116B21F0010170
:101CEC001163D36A23F460730343D3626068431CAB
:101CFC0005D10120FFF714FF0028DDD00138226840
:101D0C00936823F00F0343EA10439360D36880B2C7
:101D1C001B0C1B041843D0602046FFF78AFF0123DD
:101D2C0010B104226274C9E76373E381637410BD5C
:101D3C00006C00400368DA6822F49072DA605A6929
:101D4C0022F001025A61202380F83A3070470000DB
:101D5C0038B504460368C1681A69192522F4405243
:101D6C000A431A6182680069D9680243606921F4E8
:101D7C00B05121F00C0102430A43DA605A69A1699F
:101D8C0022F440720A435A61104A934215D1FFF76C
:101D9C003DFE05FB00F362689200B3FBF2F3642294
:101DAC00B3FBF2F102FB11331B013233B3FBF2F341
:101DBC00206803EB0113836038BDFFF717FE05FBAA
:101DCC0000F360688000B3FBF0F3E8E700380140F3
:101DDC0010B5044640B390F8393003F0FF021BB93C
:101DEC0080F8382002F098FA2423226884F83930DD
:101DFC00D368204623F40053D360FFF7A9FF236870
:101E0C0000201A6922F490421A615A6922F02A02BF
:101E1C005A61DA6842F40052DA602023E06384F8F5
:101E2C00393084F83A3010BD0120FCE738B50D4646
:101E3C000446002833D090F8393003F0FF021BB968
:101E4C0080F8382002F068FA2423226884F83930AC
:101E5C00D368204623F40053D360FFF779FF23683F
:101E6C0000201A6922F400621A615A6922F02A02CF
:101E7C005A611A6942F480421A611A6922F02002EE
:101E8C001A611A692A431A61DA6842F40052DA605C
:101E9C002023E06384F8393084F83A3038BD0120CF
:101EAC00FCE710B5044690B12423026880F8393061
:101EBC00D36823F40053D36002F022FB0020E063CC
:101ECC0084F8380084F8390084F83A0010BD0120F9
:101EDC00FCE7000038B50446134694F83920202A54
:101EEC002AD139B333B394F83820012A24D00122F3
:101EFC00002584F838202122E384206BE56384F8E4
:101F0C0039200E4AA384216282620D4AC2620D4AB4
:101F1C00C0E90C2522680432FFF78EF86FF04002FE
:101F2C00284623681A6084F838505A6942F08002B7
:101F3C005A6138BD0120FCE70220FAE7551F000862
:101F4C00831F00080120000808B503461B68406A7F
:101F5C001B6813F020030AD1C38403685A6922F06A
:101F6C0080025A61DA6842F04002DA6008BD01F082
:101F7C00AFFEFBE7704708B5406AFFF7FBFF08BDF3
:101F8C00704790F83A3010B5222B24D1816804693F
:101F9C00B1F5805F0268836A22D15268E4B9C2F35A
:101FAC00080223F8022B8362C38D013B9BB2C385CD
:101FBC008BB90368DA6822F02002DA60DA6822F45E
:101FCC008072DA605A6922F001025A61202380F88B
:101FDC003A30FFF7D5FF10BDD2B223F8012BE2E760
:101FEC00591C526881620CB91A70DDE702F07F024D
:101FFC00FAE7704708B5406A03685A6990F83910D7
:10200C0021290AD1120608D50022C284DA6822F0EE
:10201C00C002DA60202280F839205B6990F83A20FF
:10202C00222A05D15B0603D50023C385FFF782FE68
:10203C00C36B43F01003C363FFF7DBFF08BD000065
:10204C00036870B51A6804461607D9685D6907D12C
:10205C00960659D58D0657D5BDE87040FFF791BF50
:10206C0005F0010001F4907505434DD0D60705D558
:10207C00CD0542BFE36B43F00103E363530704D583
:10208C0018B1E36B43F00203E363960704D518B170
:10209C00E36B43F00403E363150704D518B1E36B5A
:1020AC0043F00803E363E36B4BB3900604D5890656
:1020BC0002D52046FFF765FF236820465B69E56B78
:1020CC0003F0400305F008051D4319D0FFF732FE5D
:1020DC0023685A6952060FD55A69606B22F0400288
:1020EC005A6148B1254B4363FEF7E2FF38B1606B90
:1020FC00BDE87040436B18472046FFF77AFF70BD70
:10210C00FFF777FFE563FAE7160628D50D0626D507
:10211C0094F83920212AF2D1A168226AB1F5805FA6
:10212C0018D11188C1F308015960216981B90232B3
:10213C002262E28C013A92B2E284002ADFD1DA68A0
:10214C0022F08002DA60DA6842F04002DA60D6E708
:10215C000132EDE7511C216212785A60E9E7500612
:10216C00CDD54A06CBD5DA68204622F04002DA609B
:10217C00202384F8393001F0ABFDC0E78D21000835
:10218C0008B50023406AC385C384FFF732FF08BD3E
:10219C000023024A1360024A13607047300000208B
:1021AC00780B002084B0F0B5144F05AC7E8884E821
:1021BC000F003B889E4228BF3C339B1B9BB2012BDC
:1021CC0019D9302404FB067405AD08340FCD0FC4A7
:1021DC000FCD0FC495E80F003A2E88BF002684E877
:1021EC000F004FF000009CBF0136B6B27E80BDE8F8
:1021FC00F04004B070470220F9E700BF3000002027
:10220C0084B0F0B5144F05AC7E8884E80F003B8891
:10221C009E4228BF3C339B1B9BB2012B19D9302407
:10222C0004FB067405AD08340FCD0FC40FCD0FC4DD
:10223C0095E80F003A2E88BF002684E80F004FF077
:10224C0000009CBF0136B6B27E80BDE8F04004B001
:10225C0070470220F9E700BF780B0020602804D9F2
:10226C002738C0B23038C0B270474028FAD9073886
:10227C00F7E760280CD92738C0B230386029C0B2D3
:10228C000AD92739C9B2303941EA0010C0B27047B7
:10229C004028F2D90738EFE74029F4D90739F1E79C
:1022AC0003099F2800F00F0094BF303337330928FF
:1022BC0094BF303037300B704870704784B02DE9C4
:1022CC00F04708AC84E80F001646504A05461078D3
:1022DC000B460128159C0B990D9F6AD1DDF83080B7
:1022EC00002944D1B8F1000F14BF72217421B3F549
:1022FC00206F2170C3F3072134BF30313731C9B29D
:10230C006170D8B2A11CFFF7CBFF0421FBB2092FDF
:10231C0094BF30333733DBB24E1C6354B8F1000F2B
:10232C000AD10DF1400A04EB06094745494609F16B
:10233C00020937D106EB4706537883B14EF660237A
:10234C00B5FBF3F003FB1055A119C5F30720FFF7FC
:10235C00A7FFB11C2144E8B2FFF7A2FF04360D23FE
:10236C00701CA35580B2BDE8F04704B07047B8F1BB
:10237C00000F14BF522354232146300E01F8013BA9
:10238C00FFF78EFFE11CC6F30740FFF789FF611DC5
:10239C00C6F30720FFF784FFE11DF0B2FFF780FFC3
:1023AC000921B3E71AF8010BFFF77AFF08F10108CE
:1023BC00BBE7022828D190780028D3D0F122042939
:1023CC0008BF46F00043002622702A0AE2702A0C4D
:1023DC0022711A0AA371E2711A0C1B0E63729DF81A
:1023EC004930A57007EB03132D0E227266706571D0
:1023FC00A37204F10B003A4610A93C4402F014F904
:10240C0007F10C00E672ADE70020ABE7A019002045
:10241C002DE9F041184E8AB034887388A34227D036
:10242C00302303FB046400236D46DFF850800893CF
:10243C00CDF8248004F1080718340FCC0FC594E8AC
:10244C000F0085E80F0097E80F00FFF737FF0C4BE4
:10245C00024641461868FFF73DFD58B933883A2BC0
:10246C008EBF034601339BB233800AB0BDE8F081C6
:10247C000220FAE70120F8E730000020FC1D0020C4
:10248C00D419002010B551EA02048AB012D10123EC
:10249C00CDE90544CDE90044CDE90733CDE902444B
:1024AC00049469460B48FEF71CFA003818BF01204B
:1024BC000AB010BDCDE905320B0C0293030C00934E
:1024CC000123CDE90733002389B280B20391019037
:1024DC000493E6E71819002010B5114B114C1A7A29
:1024EC000021023203EB82035B68204663600C23FD
:1024FC006361FFF79BFC88B92368DA6842F020021D
:10250C00DA601A6942F040021A61DA6842F010028D
:10251C00DA60DA6842F02002DA6010BD0120FCE7D4
:10252C0038170020841F002010B50B4C2046FFF7F5
:10253C00B8FC23680120DA6822F02002DA601A69FC
:10254C0022F040021A61DA6822F01002DA60DA68CE
:10255C0022F02002DA6010BD841F002008B5034869
:10256C00FEF78AFA003818BF012008BD18190020A0
:10257C0008B5FFF7F3FFFFF7D7FF3220FEF724F97A
:10258C00014B1B7A08BD00BF3817002070477047FD
:10259C00704700002DE9F04F884685B00290444901
:1025AC0040461746FEF79EF800287ED1404641492A
:1025BC00FEF77AF80546002877D1002301934FF0F7
:1025CC007E53DFF8F4A000930298FDF777FE0135F7
:1025DC0004462846FDF772FE4146FDF7C7FE01464C
:1025EC002046FDF777FF064602F034F8FEF784F834
:1025FC000728044659D9192854D8FDF75FFE01461F
:10260C0083463046FDF7A8FD20F0004630462B49A6
:10261C00FEF74AF800B1002651465846FDF7A6FED3
:10262C0002F018F84FF07E51FDF796FDFEF764F8B6
:10263C00013C10288146A4EB000433D8082C31D877
:10264C001CB910B1012400F1FF3909F10100FDF7AB
:10265C0035FE5946FDF73EFF009983463046FEF79E
:10266C0023F8C8B900213046FEF714F8D0B1514612
:10267C005846FDF771FD514620F000420198039237
:10268C00FDF76AFD039A20F000411046FEF70CF8A6
:10269C0040B17A69944205D1C7E904947D60CDF8C4
:1026AC0004B00096B5F5806F8ED105B0BDE8F08F03
:1026BC000024744A0000FA440000603FACC5273780
:1026CC0038B53F4B0D4698423E4C6CD026D844F65C
:1026DC002063984260D013D842F28D0398426CD09C
:1026EC0042F2107398425CD041F28833984261D028
:1026FC00FDF7E4FD334A01463348FFF74BFF2CE06E
:10270C004BF60323984253D04CF25033984241D0AD
:10271C0048F235239842EBD148233EE02B4B9842AC
:10272C0029D00DD82A4B984232D02A4B98422AD025
:10273C00294B9842DCD12D2363604FF4A02309E090
:10274C00264B984215D0264B9842D1D10423636076
:10275C004FF4C023236100236361224BA5602360E7
:10276C0000231848E360A361A383BDE83840FEF75B
:10277C003DB80523EBE7042363604FF4602323612A
:10278C004FF48013E8E7092363604FF44023F6E726
:10279C001223F9E72D23F7E7782363604FF43023F6
:1027AC00EDE7FF23F0E71B2363604FF42023E6E7FC
:1027BC003623F9E74FF4E173E6E74FF48773E3E769
:1027CC0006740100181900200051250220A10700F1
:1027DC0048E8010090D00300A086010000350C00F1
:1027EC0040420F000064004008B5FFF7C1FE0F4BDC
:1027FC001A7A023203EB820250681A7A0C3203EB1B
:10280C0082035968FFF75CFF08B1012008BD084836
:10281C00FEF7D6F80028F8D140F23E410448FEF706
:10282C0004FA003818BF0120F0E700BF3817002069
:10283C00181900202DE9F04104468CB0FDF780FCFE
:10284C002578C3B2A5F12102572A00F2BF80DFE838
:10285C0012F0BA04BD00BD00BD00BD00BD00BD003E
:10286C00BD00BD00BD00BD00BD00BD00BD00BD0074
:10287C00BD00BD00BD00BD00BD00BD00BD00BD0064
:10288C00BD00BD00BD00BD00BD00BD00BD00B3045A
:10289C00BD00660067047102760466009C00660049
:1028AC006600BD006600BD00E303B20058004D0297
:1028BC006600BD006E0367019603F7036A006600AD
:1028CC009904BD008D00BD00BD00BD00BD00BD0064
:1028DC00BD00BD00BD00BD00BD00BD00FC00BD00C5
:1028EC009F04BD00BD00BD00A504B200BD00BD002D
:1028FC00BD00BD0088023501E50224047C00BD004A
:10290C0094044E218048814B02689954134405323B
:10291C0030210260312259709970D9701A710D20D2
:10292C000CB0BDE8F08156247748784A036831250D
:10293C00D4543024591C555411444C70D91C555442
:10294C000A44547005330360E9E776246E486F4AF5
:10295C0003683125D4543024591C545411444D70FF
:10296C00D91C54540A4441215170EBE76378684AEE
:10297C00312B02D101235370D1E7302B17BF537881
:10298C000023B3FA83F35B09F5E746225E4C5F4DF7
:10299C0023686048EA549A1C226030222B445A70F7
:1029AC00FEF757FA236830305A1CE8545948226015
:1029BC00FEF762FAB3E76278452A01D0312A26D1B4
:1029CC00032100220FE0605C2F2801D80720A7E725
:1029DC00392803D9A0F14106052EF7D8FFF73EFCA4
:1029EC001201024401318B42EDDC4B4800EAC2007B
:1029FC0040F00400A378522B01D0312B20D140F0B1
:102A0C000200434B4D2D0CBFD861186287E7532A47
:102A1C0001D0302ADAD1032100220DE0605C2F288E
:102A2C00D4D9392803D9A0F14106052ECED8FFF709
:102A3C0015FC1201024401318B42EFDC5005D9E741
:102A4C00442BDED0302BC1D1DBE7032B1DD16078BA
:102A5C00FFF704FC2E4B5862A278492A13D04D2A5A
:102A6C000CBF0022FF229A622948436A0E2BADD874
:102A7C00826AFF2AAAD0016AC069FFF703FD002809
:102A8C003FF44DAFA2E70122EDE7042B9ED1607815
:102A9C00FFF7E4FB0346A078FFF7E0FB0A2101FBFC
:102AAC0003001B4A5062E378492B05D04D2B0CBF19
:102ABC000023FF239362D7E70123FBE700200A26BC
:102ACC00164AC4F10105117A023102EB810148600A
:102ADC0029198B427FF723AF6178303909293FF6EA
:102AEC0075AF117A023102EB81014868704348607E
:102AFC0014F8010FFFF7B2FB117A023102EB8101DE
:102B0C004F6838444860E3E79C1E00207C1E002080
:102B1C00A019002018190020F8FF1F0038170020FA
:102B2C00052B02D0022B7FF451AFAE4B1B78002B40
:102B3C007FF44CAF6378303B342B3FF647AF01A2A8
:102B4C0052F823F0252C0008372C0008472C0008DD
:102B5C00572C0008652C0008732C0008812C0008E9
:102B6C008F2C00089D2C0008AB2C0008D9290008DC
:102B7C00D9290008D9290008D9290008D929000821
:102B8C00D9290008D9290008B92C0008C92C00083B
:102B9C00D92C0008E92C0008D9290008D9290008EB
:102BAC00D9290008D9290008D9290008D9290008F1
:102BBC00D9290008D9290008D9290008D9290008E1
:102BCC00D9290008D9290008D9290008D9290008D1
:102BDC00D9290008D9290008D9290008D9290008C1
:102BEC00D9290008D9290008D9290008D9290008B1
:102BFC00D9290008D9290008D9290008D9290008A1
:102C0C00D9290008D9290008B92C0008C92C0008BA
:102C1C00D92C0008E92C0008734B1A7A023203EB0A
:102C2C00820342F210725A6079E66F4B1A7A0232C2
:102C3C0003EB820344F62062F5E76B4B1A7A0232FF
:102C4C0003EB82034CF25032EDE7674B1A7A0232F7
:102C5C0003EB8203654AE6E7634B1A7A023203EB15
:102C6C008203634ADFE7604B1A7A023203EB82037A
:102C7C00604AD8E75C4B1A7A023203EB82035E4A55
:102C8C00D1E7594B1A7A023203EB82035B4ACAE74B
:102C9C00554B1A7A023203EB8203594AC3E7524B63
:102CAC001A7A023203EB8203564ABCE74E4B1A7A6D
:102CBC00023203EB820342F28D02B4E74A4B1A7ADA
:102CCC00023203EB82034BF60322ACE7464B1A7A33
:102CDC00023203EB820348F23522A4E7424B1A7A04
:102CEC00023203EB820341F288329CE73E4C237A9A
:102CFC00032B11D10022237A0C3304EB83035A608B
:102D0C00FFF7EAFB00287FF461AE0121354A237AF4
:102D1C0011701344D97002E63B48FEF79AF800286C
:102D2C007FF454AE237A0C3304EB83035860FFF723
:102D3C005BFDE7E700232B4C2B4D23702B7A032BE9
:102D4C0009D1FFF7F1FB00287FF440AE2B7A1C442D
:102D5C000023E370E3E52C48FEF78EF8FFF7FEFB4B
:102D6C00F1E7204E3278002A3FF430AE052B7FF489
:102D7C002DAE6078FFF772FAE1780346A078FFF782
:102D8C0078FA002740EA03200223204DC5E902739C
:102D9C0028602079FFF762FA29461D4C1D4B2861EB
:102DAC0004F120021848FDF77BFE1B4B187000281D
:102DBC007FF40CAE96F82D60012E7FF4B0ADFDF7CC
:102DCC00FDFC2B69206063616B6884F82860A3604C
:102DDC002B686360EB682361AB68E360024B1B7A82
:102DEC0084E000BFA019002038170020A086010045
:102DFC0048E8010090D0030020A1070000350C002A
:102E0C0040420F000674010018190020C016002063
:102E1C00E8160020D8160020DC160020AC4F3A78BB
:102E2C00002A3FF4D3AD5A1FD3B2102B3FF6CEADD0
:102E3C006078FFF713FAE1780346A078FFF719FAE8
:102E4C0040EA03200023A34D02EBD272C5E9023302
:102E5C0028602079FFF702FAB0EB620F0646286172
:102E6C007FF4B4AD08283FF6B1AD9B4A05349E42C1
:102E7C0004F102044AD8DFF86482994C98F80830BF
:102E8C00032B4DD13246944909A801F0CDFB3146B4
:102E9C000022914800F0DBFC06F130030DEB030639
:102EAC0006F80C0C286800F0B7FC2A6909A9013255
:102EBC0000F088FDC0B2207000287FF487AD97F831
:102ECC002D60012E7FF42BADFDF778FC854C2B6922
:102EDC00206063616B6884F82860A3602B68636072
:102EEC00EB682361AB68E36098F808306D4604F139
:102EFC00100684F829300FCE0FC596E80F0085E830
:102F0C000F0094E80F00FFF77BF908E514F8011C9B
:102F1C0014F8020CFFF7ADF9013302F8010BA6E728
:102F2C00714B6D4A6B497148FDF7BAFDC3E7684EAA
:102F3C003278002A3FF44AAD0A2B7FF447ADA178D2
:102F4C006078FFF796F921790246E078FFF791F95E
:102F5C00A17903046079FFF78CF943EA0263217AC3
:102F6C000246E079FFF785F95A4D034343EA022301
:102F7C0004206B600223C5E90203607A0AE7544E11
:102F8C003278002A3FF422ADA3F10A07FBB2102BD2
:102F9C003FF61CADA1786078FFF76BF921790246FA
:102FAC00E078FFF766F9A17903046079FFF761F91E
:102FBC0043EA0263217A0246E079FFF75AF9454D5C
:102FCC00034343EA02236B6004210023C5E9021387
:102FDC00607AFFF743F907EBD777B0EB670F024640
:102FEC0028617FF4F3AC08283FF6F0AC3A4F0A3472
:102FFC009A4204F1020405D83A4C3B4B354904F192
:10300C002002CFE614F8011C14F8020CFFF731F97A
:10301C00013307F8010BEBE74FF000422F4C237AFA
:10302C000C3304EB83035A60FFF7DEFB00287FF4BC
:10303C00CDAC0122264B217A1A700B44DA706EE467
:10304C006378264C303B062B25D8DFE803F00412BE
:10305C0015181B1E21004FF46133254DE3652868BC
:10306C00FEF71FFFE26D234B28685A60FEF7B0FE97
:10307C0005E54FF4E133F0E74FF46143EDE74FF42E
:10308C001643EAE74FF49643E7E74FF41653E4E7A9
:10309C004FF41663E1E7184BDFE700220A260F4DC9
:1030AC00C4F10101EA650A19934229DCEB6DC72BC7
:1030BC007FF68CACEA6D114B9A423FF687AC0C4C08
:1030CC002068FEF7EEFEEA6D0A4B20685A60CDE7E9
:1030DC00A0190020C0160020081700203817002067
:1030EC00DC160020E8160020D81600201819002045
:1030FC00D41900200420002040420F0080841E00C0
:10310C006278303A092A3FF661ACEA6D7243EA659F
:10311C0014F8010FFFF7A2F8EA6D1044E865C2E756
:10312C006078A0F13003042B3FF650ACFFF796F813
:10313C00314B0138C0B21872FFF756FB9FE40022E6
:10314C000A262E4DC4F101016A610A19934205DC6D
:10315C00FDF734FB012328612B7637E46278303A93
:10316C00092A3FF633AC6A6972436A6114F8010F9D
:10317C00FFF774F802446A61E7E700221F4B1A72EA
:10318C00FFF7CDBB1C4BDA881C4B5A810122F6E7AA
:10319C0000221A4B83F82D20FFF7C1BB63784D2B0F
:1031AC0008D0A3F1310253425341144A82F82E3015
:1031BC00FFF7B5BB0123F8E70122104B5A7600222A
:1031CC005A83FFF7ACBB6378522B7FF4A8ABA37880
:1031DC00532B7FF4A4ABE378542B7FF4A0ABBFF359
:1031EC004F8F0749074BCA6802F4E0621343CB6068
:1031FC00BFF34F8F00BFFDE738170020A019002048
:10320C0000ED00E00400FA052DE9F043A34AA44CBC
:10321C00136889B00133136023780D2B33D8DFE8A2
:10322C0013F00E0042005101D50032003200C201F1
:10323C00C50132003200D500D5004D025402F128F0
:10324C0002D1012323701EE0E72805D10122954B02
:10325C009A7002221A7016E00D281AD19248FFF7C4
:10326C00E9FA924A1368591C1160914A0021D05412
:10327C000122904B1A701F238B4A013B13F0FF0362
:10328C0004D18D4A137009B0BDE8F08302F8011B1C
:10329C00F3E70028F7D0884A834913781C2BC854CD
:1032AC00F1D80133EEE70E28EDD8DFE810F00F006F
:1032BC0015008F008F002F0034003A007A00910027
:1032CC009A00A900AE00B000BE00F5000223F12266
:1032DC002370774B1A7080E00023784A23701360B8
:1032EC00FDF76CFAF121714C714B2268050A995467
:1032FC00012113449870DD70050C000E59701D717E
:10330C0058716C4B063222601970BCE7062323708F
:10331C00F122674B9EE7072300222370674B1A604C
:10332C00F6E7F123614E624831685E4F4354062341
:10333C0042185370624BFD78D3F834E001F1020C63
:10334C00BEF1004F0CBF4FF0100E4FF0000E754445
:10335C0000F80C50DD6801F1070CD570DD680C31FC
:10336C002D0A1571DD6831602D0C5571DD682D0E3F
:10337C0095713D799F6BB7F1004F0CBF102700275B
:10338C003D4400F80C50186910721869000A50720C
:10339C0018691B69000C1B0E9072D3720122454BED
:1033AC0013E0F1224148424B016817255A54072279
:1033BC000B445A7057229A7001221D71DA705A719F
:1033CC009A710831DA713B4B01601A70002339E7AE
:1033DC00F122374B1A700A2323700022374B1A60E4
:1033EC0051E7F1203149324B0A68985409201344B3
:1033FC00043258700A60DE20AD229870DA70CDE786
:10340C00F1222B4B1A700B23E6E70C235FE7F1201C
:10341C002649274B0A6898540C20134403320A603F
:10342C00274A587012799A70B8E7F122204B1D4840
:10343C001A700D225A70224A4179D56BB5F1004FA2
:10344C000CBF10250025294499705169D970516918
:10345C00090A19715169090C59715169090E99714F
:10346C008179106CB0F1004F0CBF1020002001448A
:10347C00D971916919729169090A597291699269A4
:10348C00090C120EDA72002299721A735A739A731B
:10349C00DA731A742270F6E60D233DE79C170020B0
:1034AC00A0170020A0190020181700209C1E002037
:1034BC007C1E0020F0190020DD160020A41700202F
:1034CC00381700208F4F904A3B681A445070052BD8
:1034DC002ED8DFE803F003060C111F238B4B18606A
:1034EC0018E08A4A136843EA0020106012E0874A09
:1034FC00136843EA0040F8E7844A136843EA006023
:10350C000028B4BF042300231060BCBF20F000408F
:10351C00506093603B6801333B60B4E600F00F00F1
:10352C00082888BF0822794B94BF18611A61F1E70B
:10353C00764E774D326906329A4202D92B449876F0
:10354C00E8E7002331462370F3607248724B05F1B3
:10355C002002FDF7A5FA0028DCD1704B93F82D4022
:10356C00012CD7D1FDF72AF985F828406C46336930
:10357C0028606B617368AB6033686B60F3682B61B8
:10358C00B36805F11006EB60654B1B7A85F82930A2
:10359C000FCE0FC496E80F0084E80F0095E80F00DB
:1035AC00FEF72EFEB6E7584B58700FE7554F3B68A9
:1035BC00072BAFD8DFE803F00406080A040608401E
:1035CC00584B8CE7574A8DE7564A91E7554D534C6B
:1035DC002B6843EA0060286010B3FEF7BFFF2A682F
:1035EC004F4BC2F31301002AD9601CDA02F0C04120
:1035FC00B1F1C04F0BD10122E2704FF000425A637F
:10360C000222227000221A72FFF7EEF882E75000B5
:10361C0006D501220221E270002221705A63F2E7E2
:10362C000023E37076E70222227000225A631A729A
:10363C00FFF7DAF80123F4E7DFF8E890374DD9F813
:10364C00003043EA0060C9F8000038B3344E95F8F6
:10365C000380C0F313003061B8F1000F14D1FEF7F2
:10366C007DFFD9F80030002B1BDA03F0C042B2F119
:10367C00C04F0CD101234FF000422B71B2630222D8
:10368C002A703372FFF7B0F80023237042E7590019
:10369C0004D50123C6F838802B71F0E700232B7179
:1036AC00F2E7C6F8388002234FF001082B7086F839
:1036BC000880FFF799F885F80480E5E7114A12496C
:1036CC0013680133C8541360DDE50E4E33680B2BC1
:1036DC0009D8DFE803F0060C1229060C125D060C63
:1036EC001292104B1860336801333360CBE50D4AEE
:1036FC00136843EA00201060F5E70A4A136843EAAE
:10370C000040F8E7A41700207C1E0020C016002003
:10371C00E816002018190020D8160020A019002047
:10372C0038170020E0160020384F394C3B6843EA2C
:10373C000060386000B3E57823791D43D3D1FEF7E0
:10374C000DFF3B68002B1ADA03F0C042B2F1C04FF8
:10375C000BD101234FF0004263712E4BDA6302222E
:10376C0022701A72FFF740F8BDE75A0004D5012306
:10377C006371284BDD63F2E700236371B3E7022228
:10378C00244B2270DD631A72FFF72EF80123F4E745
:10379C001E4F1F4C3B6843EA0060386000B3E3786F
:1037AC00002BA0D1A588002D9DD1FEF7D7FE3B683C
:1037BC00002B18DA03F0C042B2F1C04F09D101233B
:1037CC004FF00042A371134B1A64022222700322A1
:1037DC00C7E75B0004D50123A3710E4B1D64F4E70E
:1037EC000023A3717FE7022303222370094B1D647E
:1037FC001A72FEF7F9FF0123F3E7044A136843EA50
:10380C0000600023106023706DE700BFE0160020FD
:10381C00A019002038170020420882EA101282EA10
:10382C00D00282EA501212F0010F0CBF802200224B
:10383C00830883EA5003434083EA10139B0103F08F
:10384C004003134400F03F001843C0B270470023FC
:10385C0010B5994202DCD243D0B210BDC45C013326
:10386C00224492B2FF2A84BFFF3A92B2F1E70000E1
:10387C0070B58CB006462C22002101A800F0E2FEA7
:10388C00FCF79CFF244B009019789A78022998BF7A
:10389C0000218DF82020DA7888BF03398DF821209B
:1038AC001A795C788DF822205A7905918DF82320AD
:1038BC009A7908A88DF82420DA798DF825201A7ABF
:1038CC008DF826205A7A8DF827205A1895785A7B2D
:1038DC00C9B2003A18BF01228DF8282003228DF8B6
:1038EC00292022468DF82A50FFF7B1FF2844FF28E3
:1038FC0006BF0423029401946D46344608BF03931B
:10390C000FCD0FC40FCD0FC495E80F0084E80F0046
:10391C0030460CB070BD00BF0819002070B594B0D3
:10392C006C4608AE30460CADFFF7A2FF0FCD0FC4AE
:10393C0095E80F0084E80F0096E80F00FEF732FCC4
:10394C00094B93F82D30012B0BD16C460CAD0FCDE0
:10395C000FC495E80F0084E80F0096E80F00FEF7FF
:10396C004FFC14B070BD00BFA019002010B50A4C5C
:10397C0023780BB1FFF7D2FF0023012223702273AF
:10398C00A37263722372E371A37163712371E37089
:10399C00A370637010BD00BF0819002010B5044C53
:1039AC0023780BB1FFF7BAFF0023237310BD00BFC0
:1039BC00081900200022024B1A731A70704700BFBE
:1039CC0008190020F0B500230B26174D06FB03F752
:1039DC007F5DDCB287420ED00133202BF6D1002361
:1039EC000B2606FB03F7EF5DDCB227B10133202B6E
:1039FC00F7D10220F0BD0B235C432B1928559A728A
:103A0C000A7800205A704A789A708A78DA70CA78E4
:103A1C001A710A795A714A799A718A79DA71CA7962
:103A2C001A720A7A5A72E5E7A817002038B50B22E9
:103A3C0000230B4C02FB03F5295D81420BD163196A
:103A4C009A7A084B691C18682144FEF743FA002344
:103A5C000120635538BD0133202BEBD10020F9E751
:103A6C00A8170020D819002010B5134C237B8BB15C
:103A7C0023780A2B0ED8DFE803F0060E1515151562
:103A8C00151515151800552802D10123237001E0D6
:103A9C000023237310BD022360702370FFF7C6FF51
:103AAC006073F7E7E0540133F0E70B23A072237047
:103ABC00BDE81040FFF732BF0819002008B51023ED
:103ACC0009480A4AC0E90023002383618383C0E9C3
:103ADC000233C0E90433FCF789FE18B1BDE8084095
:103AEC0000F0A8BA08BD00BF1819002000640040FF
:103AFC0010B5044686B01022002102A800F0A2FDE9
:103B0C0022681E4B9A4236D103F5D633DA691C482B
:103B1C0042F00072DA61DA6902A902F000720092D6
:103B2C00009A9A6942F008029A619B6903F00803B3
:103B3C000193019B4FF480730293FDF791FB4FF4BB
:103B4C0000720223CDE9022303230D4802A9059339
:103B5C00FDF786FB0B4A1420536823F4C04343F053
:103B6C00E06343F48043536000221146FDF7A6F94D
:103B7C001420FDF7D5F906B010BD00BF006400405D
:103B8C00000C01400000014008B50268094B9A4244
:103B9C000ED1094A0948D3694FF4407123F00073E0
:103BAC00D361FDF737FCBDE808401420FDF7C6B91A
:103BBC0008BD00BF0064004000100240000C014032
:103BCC00124B07B55A69022142F001025A615B6936
:103BDC00002203F0010301930C20019BFDF76EF909
:103BEC000C20FDF79DF9002202210E20FDF766F94D
:103BFC000E20FDF795F9002202211120FDF75EF948
:103C0C00112003B05DF804EBFDF78AB900100240F7
:103C1C0070470000F8B5264C2578012D12D1254EA1
:103C2C002549376825483A4600F0FEFC244BBAB2C9
:103C3C0018682249FEF74EF90023224A33601570AA
:103C4C002370F8BD204D2B78013B012B05D8FEF7D6
:103C5C00DFFB10B901221B4B1A706B7E002BF0D0CE
:103C6C0000231A46134C698B1848144F23600844E0
:103C7C00802A02D15BB1226009E010F8016B0123AC
:103C8C0002F1010C07F8016B7EB922606E760C4BC9
:103C9C0080312288186869830849FEF71BF90023D4
:103CAC0001222360074B1A70CBE76246E0E700BFA6
:103CBC00F01900209C1E00207C1E0020FC1D002002
:103CCC00D4190020F1190020A0190020D5460008B5
:103CDC000022024B1A70FFF79DBF00BFF1190020A4
:103CEC0070B5194C88B004F1500304F13402012171
:103CFC00FCF724FF6D46FCF761FD144B04F1400604
:103D0C001B7A206384F859300FCE0FC596E80F004C
:103D1C0085E80F00303494E80F00FEF743FA0C4BA3
:103D2C0093F82D30012B0CD16D4604F110060FCEFB
:103D3C000FC596E80F0085E80F0094E80F00FEF71A
:103D4C005FFA08B070BD00BF401900203817002082
:103D5C00A0190020F0B5194C89B004F120063346A7
:103D6C000021221DFCF7EAFE28BBFCF727FD6D465F
:103D7C00134B04F110071B7A206084F829300FCF05
:103D8C000FC596E80F0085E80F0094E80F00FEF7CA
:103D9C0009FA0C4B93F82D30012B0CD16D4604F124
:103DAC0010070FCF0FC596E80F0085E80F0094E8B9
:103DBC000F00FEF725FA09B0F0BD00BF4019002036
:103DCC0038170020A0190020FFF7C4BFFFF788BFE9
:103DDC00704730B5142495B0224600210CA800F091
:103DEC0031FC22460DEB0400002100F02BFC0021DD
:103DFC00102201A800F026FC022505224FF4803386
:103E0C000124CDE90A23CDE911534FF4E0130AA89C
:103E1C001393CDE90D44FDF777FB0F234FF480622C
:103E2C00CDE905350023294605A8CDE907320993CC
:103E3C00FDF740FD4FF4807301A801940293FDF748
:103E4C00F5FD15B030BD0000F8B5FEF7A1F9694DD0
:103E5C00FCF796FC684B694A1D60694B694C1A600B
:103E6C00FFF7B7FFFFF7D4FEFFF7AAFE00F0E4F868
:103E7C0000F036FA00F018FA00F0FCF9FFF71EFE1D
:103E8C006420FCF7A1FC4FF6FF7223889BB293428F
:103E9C0002D023889BB20BB9012323804FF6FF720B
:103EAC0063884FF000419BB2934204BF4FF4005320
:103EBC00638023794FF6FF72FF2B04BF0423237119
:103ECC00E3889BB2934204BF4FF48073E380237A60
:103EDC00FF2B04BF00232372E368013304BF4A4B5A
:103EEC00E3602369013304BF484B236163690133E9
:103EFC0004BF48F235236361A369013304BF42F662
:103F0C00B103A361002303F10C0204EB820250689D
:103F1C000133013008BF5160042BF4D14FF6FF730D
:103F2C00E26D04219A4208BF4FF4E133384808BFD0
:103F3C00E365FDF7DDFA012802D14FF4E13307E028
:103F4C00E36D002BF9D0E26D324B9A42F5D2E36D62
:103F5C0028486B60FDF73CFF01222F4B2F4E1A7245
:103F6C000022DA71E2882E4F5A814FF6FF729A8145
:103F7C00FEF7FEFA2B682B4D5A6942F001025A618A
:103F8C00DA6842F02002DA6033683A68934228D14A
:103F9C00FCF714FCD5E90023801A63EB43031428C7
:103FAC0073F100030AD3204B1B7803F0FF042BB9E9
:103FBC00FCF704FCC5E90004FFF72CFEFCF7FEFB44
:103FCC001A4CD4E90023801A63EB4303B0F5FA7F53
:103FDC0073F10003D8D3FCF7F1FB0023206063607E
:103FEC00D2E7134A0133C3F30903D05C3360FFF704
:103FFC000BF9C9E704200020D4190020841F0020ED
:10400C00D81900203817002020A1070048E801002B
:10401C00000C014080969800A0190020F41D00208F
:10402C00F81D0020E8190020F1190020E0190020EB
:10403C00F21900207047000008B54FF0FF33074815
:10404C00074AC0E900234FF480738360FDF724FE18
:10405C0018B1BDE80840FFF7EDBF08BDA01E002059
:10406C000028004007B50B4B02689A420FD1FDF7B0
:10407C0045FA094BDA6942F00062DA610122DB6928
:10408C0003F000630193019B044BC3F83C2403B081
:10409C005DF804FB00280040001002400000424282
:1040AC000E4B82B09A6942F001029A619A6902F051
:1040BC0001020092009ADA6942F08052DA61DB69FF
:1040CC00074A03F080530193019B536823F0E0638C
:1040DC0043F00073536002B0704700BF0010024001
:1040EC00000001407047FEE7FEE7FEE7FEE7704781
:1040FC00704770470C4A13780133DBB21370137896
:10410C00092B0FD900231370084A13781BB11378AD
:10411C00013BDBB21370064A13781BB11378013BD9
:10412C00DBB21370FCF73EBBB41E0020B51E0020A2
:10413C00B61E00200148FDF701B800BF401F00204B
:10414C000148FCF7FBBF00BFB81E00200148FCF77C
:10415C00F5BF00BFFC1E00200148FCF77CBD00BF72
:10416C0018190020144B1A68D20604D55A68134B40
:10417C001A70FFF713BC1A6812F4807F1A6807D004
:10418C0022F480721A605A680C4B1A70FFF7EEBB5F
:10419C00100709D11A6891060BD5DA68920608D572
:1041AC005868C0B2FFF760BC5A68044B1A70FFF72E
:1041BC0001BC0348FDF744BF00380140F21D00204C
:1041CC00841F00200148FDF73BBF00BFC41F002027
:1041DC000F4A136818070ED11368990614D5D368C3
:1041EC009B0611D50B490C480B6800680133C3F3CF
:1041FC000903834203D15268084B1A7070470B6055
:10420C005168074AD15470470648FDF719BF00BFE3
:10421C0000480040F81D0020F41D0020F21D002075
:10422C00F2190020042000200F4B1A6842F0010202
:10423C001A6059680D4A0A405A601A6822F0847252
:10424C0022F480321A601A6822F480221A605A68AA
:10425C0022F4FE025A604FF41F029A604FF0006283
:10426C00034B9A60704700BF001002400000FFF83B
:10427C0000ED00E008B54FF416530948094A002137
:10428C00C0E900230C23C0E90211C0E9053101612A
:10429C00FDF7CCFD18B1BDE80840FFF7CBBE08BD5B
:1042AC00841F00200038014008B54FF4E1330A4860
:1042BC000A4AC0E9002300230C22C0E90233C0E9FA
:1042CC0005230361C361FDF783FD18B1BDE8084008
:1042DC00FFF7B0BE08BD00BFC41F00200044004063
:1042EC0008B54FF4E1330A480A4AC0E90023002319
:1042FC000C22C0E90233C0E905230361C361FDF759
:10430C0067FD18B1BDE80840FFF794BE08BD00BFBB
:10431C000420002000480040F0B5102705468BB063
:10432C003A46002106A800F08DF92B68684A9342A2
:10433C0045D1684B4FF400709A6906A942F480424B
:10434C009A619A69002602F480420092009A9A6956
:10435C00614C42F004029A619B6903F004030193DF
:10436C00019B0223CDE9060303235C480993FCF768
:10437C0077FF4FF48063CDE906360123574806A931
:10438C000893FCF76DFF564B2046C4E90037802399
:10439C00C4E90566C4E90336A660E661FCF7F6FDE0
:1043AC0008B1FFF747FE2520002201212C6365622E
:1043BC00FCF784FD2520FCF7B3FD0BB0F0BD494A9A
:1043CC0093423FD1434B0421DA69444842F4003212
:1043DC00DA61DA69002602F400320292029A9A69D2
:1043EC00414C42F004029A619B6903F0040303936D
:1043FC00039B0223CDE90613032306A90993FCF7BB
:10440C002FFF0823354806A9CDE906360896FCF798
:10441C0027FF364B2046C4E900378023C4E90566E4
:10442C00C4E90336A660E661FCF7B0FD08B1FFF7FE
:10443C0001FE2620002201212C636562FCF73EFD63
:10444C002620B8E72A4A9342B7D1224B2948DA6989
:10445C0006A942F48022DA61DA69002602F480228D
:10446C000492049A9A69244C42F008029A619B695E
:10447C004FF4806203F008030593059B0223CDE9FA
:10448C00062303230993FCF7EBFE4FF40063194852
:10449C0006A9CDE906360896FCF7E2FE174B204636
:1044AC00C4E900378023C4E90566C4E90336A66075
:1044BC00E661FCF76BFD08B1FFF7BCFD272000227D
:1044CC0001212C636562FCF7F9FC272073E700BF20
:1044DC000038014000100240B81E002000080140C6
:1044EC004400024000440040FC1E002080000240BA
:1044FC0000480040000C0140401F00201C000240FE
:10450C0003681F4A10B59342044612D102F5584273
:10451C0093694FF4C06123F480431A489361FCF70C
:10452C0079FF206BFCF760FD2520BDE81040FCF7FF
:10453C0005BD154A93420ED102F5E632D3690C2122
:10454C0023F400330F48D361FCF764FF206BFCF7B6
:10455C004BFD2620E9E70D4A93420FD102F5E432D8
:10456C00D3694FF4406123F480230948D361FCF7ED
:10457C0051FF206BFCF738FD2720D6E710BD00BF9C
:10458C000038014000080140004400400048004051
:10459C00000C0140002103E00B4B5B5843500431ED
:1045AC000A480B4B42189A42F6D30A4A02E00023FF
:1045BC0042F8043B084B9A42F9D3FFF735FE00F062
:1045CC000FF8FFF741FC7047EC4B0008000000208F
:1045DC000C0000201000002044200020FEE700000A
:1045EC0070B500260C4D0D4C641BA410A64209D1CD
:1045FC0000F056F800260A4D0A4C641BA410A64283
:10460C0005D170BD55F8043B98470136EEE755F8D7
:10461C00043B98470136F2E7E44B0008E44B0008F2
:10462C00E44B0008E84B00080A44914200F1FF33C8
:10463C0000D1704710B511F8014B914203F8014FAE
:10464C00F9D110BD03460244934200D1704703F8E0
:10465C00011BF9E708B5C0F3C7537F3B162B014686
:10466C00024614DC002B07DA013300F0004101D1C3
:10467C0041F07E51084608BD084818410142F9D066
:10468C004FF480011941114421EA0001F2E7802B1B
:10469C00F0D1FBF763FD0146ECE700BFFFFF7F00A5
:1046AC00F8B500BFF8BC08BC9E467047F8B500BF13
:0846BC00F8BC08BC9E467047E3
:1046C40002030405060708090A0B0C0D0E0F10104F
:1046D400000D53202D2073657420666978204341B2
:1046E4004E2062697420726174652E202753362728
:1046F400202D203530306B200D2073202D20736544
:10470400742063757374756D2043414E206269741F
:1047140020726174652076696120277335303030EA
:1047240030303027202D203530306B0D204F202D98
:10473400206F70656E2043414E206368616E6E6524
:104744006C200D2043202D20636C6F736520434142
:104754004E206368616E6E656C200D2074202D20E0
:1047640073656E642043414E206D657373616765A4
:104774002077697468203131626974204944200DBE
:104784002054202D2073656E642043414E206D65B6
:10479400737361676520776974682032396269745C
:1047A400204944200D2072202D2073656E6420431F
:1047B400414E2072656D6F7465206D65737361671A
:1047C4006520776974682031316269742049442016
:1047D4000D2052202D2073656E642043414E2072BB
:1047E400656D6F7465206D657373616765207769A6
:1047F4007468203239626974204944200D204620AF
:104804002D20726561642073746174757320666C05
:1048140061672062797465200D204D202D20736519
:104824007420416363657074616E6365204944203C
:1048340052656769737465722E205374616E642EB9
:104844002F4578742E202B20446174612F52656D9E
:104854002E202B20494420274D5344334239270D21
:10486400206D202D2073657420416363657074612D
:104874006E6365204D61736B2F4944322052656726
:1048840069737465722E20276D30314646462720A1
:104894000D2066202D207365742066696C74657222
:1048A400206E756D6265722028302D3133292061A8
:1048B4006E64207479706520284D202D206D6173FD
:1048C4006B2C2049202D2049442920276631492773
:1048D4000D2056202D20676574206861726477610D
:1048E400726520616E6420736F66747761726520EF
:1048F40076657273696F6E200D2076202D206765B2
:104904007420736F6674776172652076657273695B
:104914006F6E206F6E6C79200D204E202D20676500
:1049240074206465766963652073657269616C20BF
:104934006E756D626572200D205A202D20746F678C
:10494400676C652074696D65207374616D70207384
:10495400657474696E672C20275A3127202D204FE7
:104964004E2C20275A3027202D204F4646200D203C
:104974004C202D206F70656E2043414E20696E20BF
:104984006C697374656E206F6E6C79206D6F6465ED
:10499400200D206C202D204C494E206D6F64653A0B
:1049A400206C4D202D206D61737465722C206C5326
:1049B400202D20736C617665200D2075202D2073C9
:1049C400657420637573746F6D2055534152542080
:1049D4006269747261746520277531313532303003
:1049E40027200D2055202D207365742055534152E6
:1049F4005420626974726174652027553127202D13
:104A0400203131353230300D2042202D2073656C39
:104A1400656374206368616E6E656C2043414E2F3C
:104A24004C494E2027423127202D2043414E310D41
:104A3400203D3D3D20536372697074203D3D3D200F
:104A44000D50202D2050726F6772616D6D2073635D
:104A5400726970743A207374617274203D20275017
:104A640031272C2073746F70203D20275030272C61
:104A7400207072696E74203D2027503227200D204B
:104A84004A202D206D61726B657220666F72206AF8
:104A9400756D7020736372697074206166746572D9
:104AA40020656E64200D2044202D2064656C61799E
:104AB400206265666F7265206E6578742073637218
:104AC40069707420636F6D6D616E642027443130AA
:104AD400303027202D20317365630D2078202D2060
:104AE40073746F7020736372697074200D20582082
:104AF4002D20737461727420736372697074200D55
:104B0400203D3D3D204C6F6767696E67203D3D3D0C
:104B1400200D48202D20737461727428666F726DA5
:104B2400617429206C6F6767696E672E204966205F
:104B34004831202D2042696E6172792C2048322040
:104B44002D2047565245542C204833202D204352C3
:104B54005444200D2068202D2073746F70206C6FD6
:104B64006767696E67200D203D3D3D204D69736385
:104B7400203D3D3D200D3F202D206C697374206F36
:104B84006620737570706F7274656420636F6D6DE9
:104B9400616E6473200D2021525354202D207265C0
:104BA4007365740D2021534431202F202153443048
:104BB400202D207374617274757020534420636FC8
:104BC4006E6E6563742000000000000000000000A9
:104BD400010203040607080900000000010203049F
:044BE4003101000893
:044BE8000D010008B3
:0C4BEC00010000001000000000A24A04BC
:04000005080045A109
:00000001FF
